:03000000020008F3
:06005F00E4F518F5197527
:060065001A04E4F51B750E
:06006B002400752500755C
:02007100260067
:0300730002000385
:050003001207F480FE6D
:080076007ADC7BFF7C007D00B9
:0C007E00C3EC9403ED940040030200A1C9
:07008A00EA4B70030200992C
:080091001ABAFFF51B02008AF8
:080099000CBC00E10D02007E29
:0100A100223C
:0200A200AA8230
:0800A400E5B020E0030200A416
:0800AC008A8075B00075B001F7
:0100B4002229
:0800B500E5A020E0030200B504
:0900BD0075A00075A00185908278
:0100C6002217
:0700C70075260085188285F3
:0C00CE001983A3A3A3A3A37401F07A0874
:0200DA007B00A9
:0E00DC00C002C0031207DBD003D0021ABAFF25
:0200EA00011BF8
:0700EC00EA4B60030200DC97
:0700F30012007685188285DA
:0B00FA001983A3A37400F01207DB853C
:0A0105001882851983A3A374BAF0D1
:07010F001207DB8518828551
:0B0116001983A3A37407F01207DB8518
:0A0121001882851983A3A37400F06F
:07012B001207DB8518828535
:0B0132001983A3A37403F01207DB1273
:06013D0007DB8518828536
:0B0143001983A3A374B6F01207DB853C
:0A014E001882851983A3A374A4F09E
:070158001207DB8518828508
:0B015F001983A3A37405F01207DB1244
:06016A0007DB1207DB8534
:0A0170001882851983A3A37400F020
:07017A001207DB85188285E6
:0B0181001983A3A374B4F01207DB8500
:0A018C001882851983A3A37400F004
:070196001207DB85188285CA
:0B019D001983A3A3740BF01207DB858D
:0A01A8001882851983A3A37404F0E4
:0701B2001207DB1207DBE579
:0601B9002570030201EBBA
:0401BF007A047B0043
:0901C300851882851983A3A3AC01
:0A01CC00260526ECF0C002C0031265
:0B01D60007DBD003D0021ABAFF011BA8
:0701E100EA4B60030201C3B9
:0301E800020211FF
:0401EB007A047B0017
:0901EF00851882851983A3A3E59C
:0C01F80024F0C002C0031207DBD003D0CB
:06020400021ABAFF011B03
:07020A00EA4B60030201EF63
:070211001207DB1207DB8579
:0A0218001882851983A3A3A3A3A3F2
:060222007400F0120076EA
:0102280022B3
:070229007528527529657567
:060230002A61752B6475C4
:060236002C6E752D6775AA
:06023C002E20752F6375F2
:06024200306F75316E758E
:06024800326675332075DB
:06024E0034647535617592
:0602540036747537617578
:06025A00380085188285C2
:0C0260001983A3A3A3A3A37401F07A08E0
:02026C007B0015
:0E026E00C002C0031207DBD003D0021ABAFF91
:02027C00011B64
:07027E00EA4B600302026E6F
:070285001200768518828546
:0B028C001983A3A37400F01207DB85A8
:0A0297001882851983A3A374BAF03E
:0702A1001207DB85188285BE
:0B02A8001983A3A37407F01207DB8585
:0A02B3001882851983A3A37400F0DC
:0702BD001207DB85188285A2
:0B02C4001983A3A37403F01207DB12E0
:0602CF0007DB85188285A3
:0B02D5001983A3A374B6F01207DB85A9
:0A02E0001882851983A3A374A4F00B
:0702EA001207DB8518828575
:0B02F1001983A3A37405F01207DB12B1
:0602FC0007DB1207DB85A1
:0A0302001882851983A3A37400F08C
:07030C001207DB8518828552
:0B0313001983A3A374B6F01207DB856A
:0A031E001882851983A3A37400F070
:070328001207DB8518828536
:0B032F001983A3A3740BF01207DB85F9
:0A033A001882851983A3A37404F050
:0A0344001207DB1207DB7A047B00CE
:0C034E00C002C0031207DBD003D0028500
:0A035A001882851983A3A3A3E0FC19
:0E0364008C82C002C0031200A2D003D0021A85
:04037200BAFF011BB2
:07037600EA4B600302034E95
:07037D001207DB1207DB850C
:0A0384001882851983A3A3A3A3A385
:0A038E007400F012007685188285D5
:0C0398001983A3A3A3A3A3A3A37401F0E3
:0103A4002236
:0703A5007526008518828512
:0C03AC001983A3A3A3A3A37401F07A0893
:0203B8007B00C8
:0E03BA00C002C0031207DBD003D0021ABAFF44
:0203C800011B17
:0703CA00EA4B60030203BAD5
:0703D1001200767C007D00A4
:0E03D800C3EC9410ED64809480400302057A1B
:0A03E600851882851983A3A3740013
:0D03F000F0C004C0051207DBD005D0048565
:0A03FD001882851983A3A374B4F0DD
:0C040700C004C0051207DBD005D004853E
:0A0413001882851983A3A37403F077
:0C041D00C004C0051207DBD005D0048528
:0A0429001882851983A3A38C06EE48
:0D043300F0C004C0051207DBD005D0048521
:0A0440001882851983A3A37400F04D
:04044A007A047B00B5
:0E044E00C002C003C004C0051207DBD005D0F9
:0A045C0004D003D0021ABAFF011BFE
:07046600EA4B600302044EA3
:0A046D00851882851983A3A374008B
:0D047700F0C004C0051207DBD005D00485DD
:0A0484001882851983A3A374B0F059
:0C048E00C004C0051207DBD005D00485B7
:0A049A001882851983A3A37400F0F3
:0C04A400C004C0051207DBD005D00485A1
:0A04B0001882851983A3A37400F0DD
:0C04BA00C004C0051207DBD005D004858B
:0A04C6001882851983A3A37410F0B7
:0E04D000C004C0051207DBD005D004C004C074
:0C04DE00051207DBD005D004E5257003F3
:0304EA0002052EDA
:0404ED007A107B0006
:0904F100851882851983A3A3AECE
:0604FA00260526EEF0E5E8
:0605000026B4FF02800397
:0305060002050CDF
:0305090075260054
:0E050C00C002C003C004C0051207DBD005D03A
:0A051A0004D003D0021ABAFF011B3F
:07052400EA4B60030204F141
:03052B0002055C6A
:04052E007A107B00C4
:09053200851882851983A3A3E555
:0B053B0024F0C002C003C004C0051281
:0E05460007DBD005D004D003D0021ABAFF01A3
:010554001B8B
:07055500EA4B6003020532CE
:0E055C00C004C0051207DBD005D004C004C0E7
:0D056A00051207DBD005D0040CBC00010D0C
:030577000203D8A4
:0A057A00851882851983A3A3A3A3AB
:07058400A37400F0120076E1
:01058B00224D
:0A058C00851882851983A3A3A3A399
:08059600A37401F07A087B0058
:0E059E00C002C0031207DBD003D0021ABAFF5E
:0205AC00011B31
:0705AE00EA4B600302059E09
:0705B5001200767C007D00BE
:0C05BC00C3EC9410ED94004003020729EA
:0A05C800851882851983A3A374002F
:0D05D200F0C004C0051207DBD005D0048581
:0A05DF001882851983A3A374B4F0F9
:0C05E900C004C0051207DBD005D004855B
:0A05F5001882851983A3A37403F094
:0C05FF00C004C0051207DBD005D0048545
:0A060B001882851983A3A38C06EE64
:0D061500F0C004C0051207DBD005D004853D
:0A0622001882851983A3A37400F069
:04062C007A047B00D1
:0E063000C002C003C004C0051207DBD005D015
:0A063E0004D003D0021ABAFF011B1A
:07064800EA4B6003020630DB
:0A064F00851882851983A3A37400A7
:0D065900F0C004C0051207DBD005D00485F9
:0A0666001882851983A3A374B2F073
:0C067000C004C0051207DBD005D00485D3
:0A067C001882851983A3A37403F00C
:0C068600C004C0051207DBD005D00485BD
:0A0692001882851983A3A37400F0F9
:0C069C00C004C0051207DBD005D00485A7
:0A06A8001882851983A3A37410F0D3
:0E06B200C004C0051207DBD005D004C004C090
:0C06C000051207DBD005D0047A107B0087
:0E06CC00C002C003C004C0051207DBD005D079
:0A06DA0004D003D0028518828519B0
:0E06E40083A3A3A3E0FE8E82C002C003C00465
:0E06F200C0051200A2D005D004D003D0021A19
:04070000BAFF011B20
:07070400EA4B60030206CC82
:0E070B00C004C0051207DBD005D004C004C036
:0D071900051207DBD005D0040CBC00010D5B
:030726000205BC0D
:0A072900851882851983A3A3A3A3FA
:0B073300A37400F01200768518828588
:0C073E001983A3A3A3A3A3A3A37401F039
:01074A00228C
:08074B007ADC7BFF7C007D00DD
:0C075300C3EC9405ED940040030207760F
:07075F00EA4B700302076E74
:080766001ABAFFF51B02075F40
:08076E000CBC00E10D02075371
:010776002260
:0A077700851882851983A3A3A3A3AC
:0A078100A37401F085188285198326
:0D078B00A3A3A3A3A3A37400F01200761291
:0A07980007DB74032518FA7400351E
:0C07A20019FB8A828B83E060030207BD14
:0D07AE007582FF1200A275820075830002A3
:0207BB0007DA5B
:0A07BD007582011200A285188285E2
:0B07C7001983A3A3A3A3A37400F012E6
:0807D2000076758201758300B9
:0107DA0022FC
:0A07DB00AA1AAB1B8A828B83E07020
:0407E500030207DB29
:0A07E900851882851983A37400F0BF
:0107F30022E3
:0807F4007525001200B5858295
:0807FC0027E527B40102800388
:03080400020838AF
:070807001200B5858223E514
:06080E0023B40102800387
:03081400020820B7
:070817001200B585822402E6
:02081E000823AD
:030820007525013A
:0A0823001203A575820A1200A2124A
:09082D00058C75820A1200A2027A
:0208360007F4C5
:07083800E527B40202800372
:03083F0002087339
:070842001200B5858223E5D9
:0608490023B4010280034C
:03084F0002085B41
:070852001200B585822402AB
:02085900085E37
:03085B00752501FF
:0A085E001200C775820A1200A212F0
:09086800022975820A1200A202A5
:0208710007F48A
:07087300E527B40302800336
:03087A000207F47E
:06087D001207770207F4E8
:010883002252
:06003700E478FFF6D8FD9D
:080015007900E94400601B7A48
:05001D00009008887846
:030022000075A0C6
:0A00250000E493F2A308B8000205FE
:08002F00A0D9F4DAF275A0FF7C
:08003D007800E8600A79007503
:07004500A000E4F309D8FC60
:08004C007800E84400600C7923
:0B00540000900000E4F0A3D8FCD9FAF3
:03000800758138C7
:0A000B00120884E58260030200037E
:040884007582002257
:00000001FF
