:100E000078387A05D11F78387A01D11F78067A01AF
:100E1000D11F780C7A01D11F78017A02D11F22C22A
:100E2000A6C2A5D2A78880C2A77580FFD2A6D2A7E6
:100E30002087FDC2A722C0E07480B8010274C049B7
:100E4000F87A01D11FD0E022C0E078017900D136D4
:100E500079107420D161D9FA78017900D136D0E0C7
:100E600022C2A6D2A5D2A7F580C2A77580FFD2A6BE
:100E7000C2A5D2A72087FDC2A722E4936006120E66
:100E800061A380F622E06006120E61A380F722784B
:100E9000007900800478017900120E36120E7A2251
:0B0EA000780F8002780C7A01D11F222D
:100F00007589017814758C3C758ABCC28DD28C3081
:100F10008DFDC28DC28CD8ED000000D8FB2278C7B1
:090F2000F11878C7F118DAF62285
:03000000020041BA
:03000300020051A7
:03000B000200529E
:0300130002005395
:03001B000200548C
:0300230002005583
:1000300020204C4549544F522020524649442032FA
:1000400000120E00900030120E8F7903120F038001
:06005000F03232323232C0
:00000001FF
