:100E000078387A05D11F78387A01D11F78067A01AF
:100E1000D11F780C7A01D11F78017A02D11F22C22A
:100E2000A6C2A5D2A78880C2A77580FFD2A6D2A7E6
:100E30002087FDC2A722C0E07480B8010274C049B7
:100E4000F87A01D11FD0E022C0E078007900D136D5
:100E500079107420D17AD9FA78007900D136D0E0AF
:100E600022C0E078017900D13679107420D17AD986
:100E7000FA78017900D136D0E022C2A6D2A5D2A755
:100E8000F580C2A77580FFD2A6C2A5D2A72087FD94
:100E9000C2A722E4936006120E7AA380F622E060D5
:100EA00006120E7AA380F722780079008004780178
:100EB0007900120E36120E9322780F8002780C7A87
:040EC00001D11F221B
:100F0000758901F10622758CF8758A45227E02DE0C
:100F1000FE22F100C28DD28C308DFDF106C28DC251
:100F20008CD8F12278C8F112D9FA227905F124DAA5
:100F3000FA22C0E0C0F0BA0013B90009B80002E11B
:100F400056F112E156EEE8F124F8E13CE889F0F1BF
:0B0F50002BF8A9F0E139D0F0D0E0222E
:100D00003F065B4F666D7D077F6F777C395E79713B
:100D1000900D0093F4F58022C290C291C292E9FB3B
:100D2000E875F06484D290B1107801120F12E5F0EA
:100D300075F00A84C290D291B1107801120F12E5B9
:100D4000F0C291D292B1107801120F12C292D9D092
:050D5000EBF9DACC22F2
:03000000020026D5
:03000300020028D0
:03000B00020029C7
:0300130002002ABE
:03001B0002002BB5
:0A00230002002C80FE32323232322D
:00000001FF
