:100F000078387A05F11F78387A01F11F78067A016E
:100F1000F11F780C7A01F11F78017A02F11F22C2C9
:100F2000A6C2A5D2A78880C2A77580FFD2A6D2A7E5
:100F30002087FDC2A722C0E07480B8010274C049B6
:100F4000F87A01F11FD0E022C0E078007900F13694
:100F500079107420F17AD9FA78007900F136D0E06E
:100F600022C0E078017900F13679107420F17AD945
:100F7000FA78017900F136D0E022C2A6D2A5D2A734
:100F8000F580C2A77580FFD2A6C2A5D2A72087FD93
:100F9000C2A722E4936006120F7AA380F622E060D3
:100FA00006120F7AA380F722780079008004780176
:100FB0007900120F36120F9322780F8002780C7A84
:0D0FC00001F11F22C0E0742AF17AD0E02276
:100D00008F89B105228E8D8D8B8C8C8B8A227E02F1
:100D1000DEFE227F017E007D007CF87B3FB100C2B9
:100D20008DD28C308DFDB105C28DC28CD8F1227868
:100D3000C8B113D9FA227905B12FDAFA22C0E0C07E
:100D4000F0BA0013B90009B80002A161B113A161A2
:100D5000EEE8B12FF8A147E889F0B136F8A9F0A183
:060D600044D0F0D0E022B7
:100A000089988887C298C299228989888DD28E2236
:100A10003098FDC298E59922F5993099FDC2992246
:100A2000C299744FF5993099FDC299744BF599307C
:050A300099FDC29922AE
:10080000E5940312088702089C000208A70002086A
:10081000B5000208C1000208CD000208DC00020990
:100820000900020916000209190002092B00020939
:100830003A000209520002088600020886000208F7
:100840008600020886000208860002088600020868
:100850008600020886000208860002088600020858
:100860008600020886000208860002088600020848
:100870008600020886000208860002088600020838
:1008800086000208860032D083D0822582F582500D
:100890000674012583F583C082C08322E59354103A
:1008A000F593C200020886D2007595D0E59354E70F
:1008B000F5930208867595D1E59354E7F593020800
:1008C00086855F95E59354C7F593020886E59354B2
:1008D000D74410F593C2000561020886D55D1BD58B
:1008E0005E0DE59354D74410F593C200020886E5E7
:1008F0009354E74420F593020886A8608695E59313
:1009000054C7F5930560020886E59354D74410F563
:1009100093C200020886020886E59354C7D55E0498
:1009200054FB80024404F593020886E59354D744AF
:1009300010F593C2000561020886A860A695E593AC
:1009400054C7D55E0454FB80024404F5930560024D
:100950000886A860A695E59354D74410F5930560E2
:05096000C20002088640
:1007000075A80075B100758901D2C0D2C175934139
:1007100075B20275B30275B102D2AF885089518AA1
:10072000528B538C548D558E568F5712072F22752E
:100730005F00755D09755E01756050E5934420F5B5
:10074000937A007900780A120D3D755B1E30000E19
:100750007A0079007810120D3DD55BF1055C2275A9
:100760005F00755D01755E09756050E5934420F585
:10077000937A007900780A120D3D755B1E30000EE9
:100780007A0079007810120D3DD55BF1055C2244AA
:100790004F4D0053454700544552005155410051BB
:0B07A0005549005345580053414200EA
:03000000020046B5
:0300030002031DD8
:03000B0002031ECF
:0300130002031FC6
:03001B00020320BD
:03002300020321B4
:10004300020322780079007A157B067C197D057EF0
:10005300177F12120700120F00792078F3120A0992
:1000630079507880120A00020203120A10B401F7D1
:10007300120A10F550120A10F551120A10F5521215
:100083000A10F553120A10F554120A10F555120A04
:1000930010F556120A10F557120A2012072F75573A
:1000A3009241037453120A187A3212032E745712B0
:1000B3000A187A3212032E7432120A187A32120391
:1000C3002E7420120A187A3212032E742D120A1873
:1000D3007A3212032E7420120A187A3212032E7403
:1000E30041120A187A3212032E7463120A187A32F2
:1000F30012032E7469120A187A3212032E746F12C5
:100103000A187A3212032E746E120A187A32120304
:100113002E7461120A187A3212032E7464120A18AA
:100123007A3212032E746F120A187A3212032E7463
:1001330020120A187A3212032E7461120A187A32C4
:1001430012032E7473120A187A3212032E742012B9
:100153000A187A3212032EE55212022CE559243082
:10016300120A187A3212032EE5582430120A187430
:100173003A120A18E55112022CE5592430120A18D2
:10018300E5582430120A18743A120A18E55012027C
:100193002CE5592430120A18E5582430120A187431
:1001A30020120A18742D120A187420120A18E55422
:1001B30012022CE5592430120A18E5582430120A89
:1001C30018742F120A18E55512022CE5592430121F
:1001D3000A18E5582430120A18742F120A18E55623
:1001E30012022CE5592430120A18E5582430120A59
:1001F300187420120A18740D120A18740A120A18B5
:100203007A3212032E30980AC298E599B4AA0302EF
:10021300006D80007E017A007900787D120D3D1219
:10022300075FB2B612023A80D7C0E0540FF558D038
:10023300E0C4540FF55922120F48E55212022CE57F
:10024300592430120F7AE5582430120F7A743A1277
:100253000F7AE55112022CE5592430120F7AE55832
:100263002430120F7A743A120F7AE55012022CE5F9
:10027300592430120F7AE5582430120F7A120F6185
:10028300E55412022CE5592430120F7AE558243034
:10029300120F7A742F120F7AE55512022CE55924A6
:1002A30030120F7AE5582430120F7A742F120F7A16
:1002B300E55612022CE5592430120F7AE558243002
:1002C300120F7A7420120F7A742D120F7A7420127F
:1002D3000F7AE553B4010790078F120F9322B402EC
:1002E30007900793120F9322B40307900797120FF7
:1002F3009322B4040790079B120F9322B40507902F
:10030300079F120F9322B406079007A3120F93229D
:09031300B407069007A7120F932E
:10031C00223232323232B29402080032000000D85B
:0D032C00FB2278B7712878B77128DAF62225
:00000001FF
