:100F000078387A05F11F78387A01F11F78067A016E
:100F1000F11F780C7A01F11F78017A02F11F22C2C9
:100F2000A6C2A5D2A78880C2A77580FFD2A6D2A7E5
:100F30002087FDC2A722C0E07480B8010274C049B6
:100F4000F87A01F11FD0E022C0E078007900F13694
:100F500079107420F17AD9FA78007900F136D0E06E
:100F600022C0E078017900F13679107420F17AD945
:100F7000FA78017900F136D0E022C2A6D2A5D2A734
:100F8000F580C2A77580FFD2A6C2A5D2A72087FD93
:100F9000C2A722E4936006120F7AA380F622E060D3
:100FA00006120F7AA380F722780079008004780176
:100FB0007900120F36120F9322780F8002780C7A84
:0D0FC00001F11F22C0E0742AF17AD0E02276
:100D00008F89B105228E8D8D8B8C8C8B8A227E02F1
:100D1000DEFE227F017E007D007CF87B3FB100C2B9
:100D20008DD28C308DFDB105C28DC28CD8F1227868
:100D3000C8B113D9FA227905B12FDAFA22C0E0C07E
:100D4000F0BA0013B90009B80002A161B113A161A2
:100D5000EEE8B12FF8A147E889F0B136F8A9F0A183
:060D600044D0F0D0E022B7
:100A000089988887C298C299228989888DD28E2236
:100A10003098FDC298E59922F5993099FDC2992246
:100A2000C299744FF5993099FDC299744BF599307C
:050A300099FDC29922AE
:10080000E5940312088702089C000208A70002086A
:10081000B5000208C1000208CD000208DC00020990
:100820000900020916000209190002092B00020939
:100830003A000209520002088600020886000208F7
:100840008600020886000208860002088600020868
:100850008600020886000208860002088600020858
:100860008600020886000208860002088600020848
:100870008600020886000208860002088600020838
:1008800086000208860032D083D0822582F582500D
:100890000674012583F583C082C08322E59354103A
:1008A000F593C200020886D2007595D0E59354E70F
:1008B000F5930208867595D1E59354E7F593020800
:1008C00086855F95E59354C7F593020886E59354B2
:1008D000D74410F593C2000561020886D55D1BD58B
:1008E0005E0DE59354D74410F593C200020886E5E7
:1008F0009354E74420F593020886A8608695E59313
:1009000054C7F5930560020886E59354D74410F563
:1009100093C200020886020886E59354C7D55E0498
:1009200054FB80024404F593020886E59354D744AF
:1009300010F593C2000561020886A860A695E593AC
:1009400054C7D55E0454FB80024404F5930560024D
:100950000886A860A695E59354D74410F5930560E2
:05096000C20002088640
:10060000444F4D0053454700544552005155410059
:1006100051554900534558005341420075A8007593
:10062000B100758901D2C0D2C175934175B202750E
:10063000B30275B102D2AF885089518A528B538C64
:10064000548D558E568F5712064B22755F00755D7F
:1006500009755E01756050E5934420F5937A007941
:1006600000780A120D3D755B1E30000E7A0079008D
:100670007810120D3DD55BF1055C22755F00755D4C
:1006800001755E09756050E5934420F5937A007911
:1006900000780A120D3D755B1E30000E7A0079005D
:1006A0007810120D3DD55BF1055C22120A10F55051
:1006B000120A10F551120A10F552120A10F55312CF
:1006C0000A10F554120A10F555120A10F556120ABE
:1006D00010F55722C0E0540FF558D0E0C4540FF580
:1006E0005922E553B40106900600020720B4020621
:1006F000900604020720B40306900608020720B4FF
:10070000040690060C020720B405069006100207A6
:1007100020B40606900614020720B40703900618BA
:1007200022795DE5521206D4E5592430F709E558DF
:100730002430F709743AF709E5511206D4E5592433
:1007400030F709E5582430F709743AF709E55012F3
:1007500006D4E5592430F709E5582430F7227966A4
:10076000E5541206D4E5592430F709E5582430F74A
:1007700009742FF709E5551206D4E5592430F70915
:10078000E5582430F709742FF709E5561206D4E529
:0C079000592430F709E5582430F70922FD
:03000000020046B5
:030003000200E216
:03000B000200E30D
:030013000200E404
:03001B000200E5FB
:030023000200E6F2
:100043000200E7780079007A157B067C197D057E2E
:10005300177F1212061C120F00792078F3120A0977
:1000630079507880120A00020081120A10B401F755
:100073001206AB120A2012064B75579280007A00C3
:1000830079007832120D3D30980AC298E599B4AAE6
:100093000302006D7A007900787D120D3D12067B14
:1000A300B2B61200AA80D7120F481207217A087934
:1000B3005DE7120F7A09DAF9120F6112075E7A0807
:1000C3007966E7120F7A09DAF97420120F7A742D20
:1000D300120F7A7420120F7A1206E2120F93223251
:0A00E30032323232B29402080032C9
:00000001FF
