:03000000020052A9
:030003000201B443
:03000B000201B53A
:030013000201B631
:03001B000201B728
:030023000201B81F
:03204B000201B9D6
:1000300020204C4549544F5220205246494420200C
:1000400000205041535345204F2043415254414FCB
:100050002000318831AAD28E11C4900030316C79E1
:100060000131A39000413172790131A33125750A24
:100070005543C310D29143C38253C3F743C30443D0
:10008000B10443C340C201D2AF800280CB850AC510
:100090003001FDC20175C5003001FDC201850809AE
:1000A00002008D780C79A03098FDE599F7C298D8B8
:1000B000F6227A0C79A0E7313E09DAFA22D2B03181
:1000C00095C2B02278387A0511E378387A0111E3C5
:1000D00078067A0111E3780C7A0111E378017A024B
:1000E00011E322C2A6C2A5D2A78880C2A77580FF4D
:1000F000D2A6D2A72087FDC2A722C0E07480B80193
:100100000274C049F87A0111E3D0E022C0E078001F
:10011000790011FA79107420313ED9FA780079000B
:1001200011FAD0E022C0E07801790011FA79107458
:1001300020313ED9FA7801790011FAD0E022C2A626
:10014000D2A5D2A7F580C2A77580FFD2A6C2A5D23C
:10015000A72087FDC2A722E493600612013EA38078
:10016000F622E0600612013EA380F72278007900B3
:0F0170008004780179001200FA12015722780FEB
:10017F008002780C7A0111E322758921758C5675EE
:10018F008AA9758DF922C28DD28C308DFDC28DC298
:10019F008CD8F32278323195D9FA2275A88875B8A0
:1001AF0008759850223232323232AFC48FE030E7C6
:1001BF000985C508E508313ED20130E40030E6007C
:0301CF003280FE7D
:00000001FF
