:100F000078387A05F11F78387A01F11F78067A016E
:100F1000F11F780C7A01F11F78017A02F11F22C2C9
:100F2000A6C2A5D2A78880C2A77580FFD2A6D2A7E5
:100F30002087FDC2A722C0E07480B8010274C049B6
:100F4000F87A01F11FD0E022C0E078007900F13694
:100F500079107420F17AD9FA78007900F136D0E06E
:100F600022C0E078017900F13679107420F17AD945
:100F7000FA78017900F136D0E022C2A6D2A5D2A734
:100F8000F580C2A77580FFD2A6C2A5D2A72087FD93
:100F9000C2A722E4936006120F7AA380F622E060D3
:100FA00006120F7AA380F722780079008004780176
:100FB0007900120F36120F9322780F8002780C7A84
:0D0FC00001F11F22C0E0742AF17AD0E02276
:100D00008F89B105228E8D8D8B8C8C8B8A227E02F1
:100D1000DEFE227F017E007D007CF87B3FB100C2B9
:100D20008DD28C308DFDB105C28DC28CD8F1227868
:100D3000C8B113D9FA227905B12FDAFA22C0E0C07E
:100D4000F0BA0013B90009B80002A161B113A161A2
:100D5000EEE8B12FF8A147E889F0B136F8A9F0A183
:060D600044D0F0D0E022B7
:100A000089988887C298C299228989888DD28E2236
:100A10003098FDC298E59922F5993099FDC2992246
:100A2000C299744FF5993099FDC299744BF599307C
:050A300099FDC29922AE
:10080000E5940312088702089C000208A70002086A
:10081000B5000208C1000208CD000208DC00020990
:100820000900020916000209190002092B00020939
:100830003A000209520002088600020886000208F7
:100840008600020886000208860002088600020868
:100850008600020886000208860002088600020858
:100860008600020886000208860002088600020848
:100870008600020886000208860002088600020838
:1008800086000208860032D083D0822582F582500D
:100890000674012583F583C082C08322E59354103A
:1008A000F593C200020886D2007595D0E59354E70F
:1008B000F5930208867595D1E59354E7F593020800
:1008C00086855F95E59354C7F593020886E59354B2
:1008D000D74410F593C2000561020886D55D1BD58B
:1008E0005E0DE59354D74410F593C200020886E5E7
:1008F0009354E74420F593020886A8608695E59313
:1009000054C7F5930560020886E59354D74410F563
:1009100093C200020886020886E59354C7D55E0498
:1009200054FB80024404F593020886E59354D744AF
:1009300010F593C2000561020886A860A695E593AC
:1009400054C7D55E0454FB80024404F5930560024D
:100950000886A860A695E59354D74410F5930560E2
:05096000C20002088640
:1007000075A80075B100758901D2C0D2C175934139
:1007100075B20275B30275B102D2AF755000755152
:10072000527552157553047554177555057556173E
:1007300075571212073722755F00755D09755E01E6
:10074000756050E5934420F593755A0A12031C75A1
:100750005B6430000B755A0A12031CD55BF4055C10
:1007600022755F00755D01755E09756050E5934403
:1007700020F593755A0A12031C755B6430000E7ADB
:10078000007900780B120D3DD55BF1055C22444FDA
:100790004D005345470054455200515541005155B5
:0A07A0004900534558005341420040
:03000000020046B5
:03000300020311E4
:03000B00020312DB
:03001300020313D2
:03001B00020314C9
:03002300020315C0
:10004300020316120700120F00755712C2207921FE
:1000530078F3120A0979507880120A000201F81223
:100063000A10B401F7120A10F550120A10F55112D2
:100073000A10F552120A10F553120A10F554120A17
:1000830010F555120A10F556120A10F557120A20E8
:1000930012073775579221F87453120A187A3212DD
:1000A30003357457120A187A321203357432120A5E
:1000B300187A321203357420120A187A3212033571
:1000C300742D120A187A321203357420120A187A20
:1000D300321203357441120A187A321203357463EB
:1000E300120A187A321203357469120A187A321214
:1000F3000335746F120A187A32120335746E120ABA
:10010300187A321203357461120A187A32120335DF
:100113007464120A187A32120335746F120A187A49
:10012300321203357420120A187A321203357461BD
:10013300120A187A321203357473120A187A3212B9
:1001430003357420120A187A32120335E55212026B
:1001530020E5592430120A187A32120335E558245F
:1001630030120A18743A120A18E551120220E5599E
:100173002430120A18E5582430120A18743A120A65
:1001830018E550120220E5592430120A18E55824C4
:1001930030120A187420120A18742D120A187420C7
:1001A300120A18E554120220E5592430120A18E500
:0301B3005824309D
:1001B600120A18742F120A18E555120220E559245E
:1001C60030120A18E5582430120A18742F120A1829
:1001D600E556120220E5592430120A18E558243053
:1001E600120A187420120A18740D120A18740A12C8
:1001F6000A187A3212033530980AC298E599B4AAD9
:100206000302006280007E01755AA012031CDEF80C
:10021600120761B2B612022E80D8C0E0540FF5580C
:10022600D0E0C4540FF55922120F48E552120220AD
:10023600E5592430120F7AE5582430120F7A743AB1
:10024600120F7AE551120220E5592430120F7AE591
:10025600582430120F7A743A120F7AE5501202209F
:10026600E5592430120F7AE5582430120F7A120F0E
:1002760061E554120220E5592430120F7AE558241C
:1002860030120F7A742F120F7AE555120220E559B3
:100296002430120F7AE5582430120F7A742F120F79
:1002A6007AE556120220E5592430120F7AE55824D1
:1002B60030120F7A7420120F7A742D120F7A74206E
:1002C600120F7AE553B4010790078E120F9322B4EA
:1002D6000207900792120F9322B403079007961213
:1002E6000F9322B4040790079A120F9322B40507BE
:1002F60090079E120F9322B406079007A2120F933F
:1003060022B407069007A6120F93223232323232F7
:02031600B2949F
:1003180002080032758CFC758A17D28C308DFDC2AC
:100328008CC28DD55AEE22000000D8FB2278B77116
:080338002F78B7712FDAF622CD
:00000001FF
