:1000000002007B022003000000000002200B000021
:10001000000000022013000000000002201B00006E
:10002000000000022023000000000002202B00003E
:10003000000000022033000000000002203B00000E
:10004000000000022043000000000002204B0000DE
:10005000000000022053000000000002205B0000AE
:10006000000000022063000000000002206B00007E
:10007000000000022073000000000020B20775F1AC
:1000800055C2B78003022000E4F5CBF5CAF5CCF5E4
:10009000CDF5C9F5C820B0FD30B0FDD2CA30B003EF
:1000A00030CFFA30B0FD30B00330CFFA30B0FDC2FF
:1000B000CA20CFD4AFCCAECDEEC313FCEF132FFFCD
:1000C000EC3EFEEF2410FFE43EFEEF7805CEC313B6
:1000D000CE13D8F9FFC3E49FF59AE4F5CCF5CDF53E
:1000E000C9F5C8438780759B1E75985AC298309889
:1000F000FDE599B411F6758E0DD2B702037DA29875
:1001000022A29922E59922F59922C29922D2992216
:10011000C29822C2AC22D2AC22222275D10822F08F
:1001200000D32243A2200012FFF30053A2DF227566
:10013000D108F00043A220C0E012FFF3D0E053A2A8
:02014000DF22BC
:1002000000000000000000000000000000000000EE
:1002100000000000000000000000000000000000DE
:1002200000000000000000000000000000000000CE
:1002300000000000000000000000000000000000BE
:1002400000000000000000000000000000000000AE
:10025000000000000000000000000000000000009E
:10026000000000000000000000000000000000008E
:10027000000000000000000000000000000000007E
:10028000000000000000000000000000000000006E
:10029000000000000000000000000000000000005E
:1002A000000000000000000000000000000000004E
:1002B000000000000000000000000000000000003E
:1002C000000000000000000000000000000000002E
:1002D000000000000000000000000000000000001E
:1002E000000000000000000000000000000000000E
:1002F00000000000000000000000000000000000FE
:10030000C082C083900289F0E5D0A3F0E4F5D0C5A7
:10031000A8A3F0D0E0A3F0D0E0A3F0D0E0A3F0D009
:10032000E0A3F0A3E0C581F0E5F0A3F0E8A3F07846
:100330000008A3E0C6F0E8B46FF712011A120E80AD
:10034000120AFA1209FF1209ED1209ED1209ED1253
:0E03500009FF90028EE8F0A3E9F012010D22E1
:1003670056342E3030000000211080024403002054
:10037700230080001000758107900289E47805F05A
:10038700A3D8FC7420F0A37400F0A37407F0A3E4CF
:10039700F0F52304F524900281790078A51203FA79
:1003A70078331203FA78CC1203FAE960107A0B7DDE
:1003B70000120AACE4F530F531900288F0120E8095
:1003C7001207B2B4110AE5231207A6F4F52380F049
:1003D700B40107E5241207A680E61203E680E1F5DB
:1003E700251414540E9007E2FF93CFA3938F83F540
:1003F70082E473E06849F9E8F0A32274061207A6BD
:10040700E5281207A69002847804E01207A6A3D86D
:10041700F974041207A6227528001207BEF5266094
:10042700371207BEF5831207BEF5821207BEF527FE
:10043700AF26BF050312011B1207BE1208C4A3D5BE
:1004470027F61207BEAF26BF0503120123E5256075
:1004570003752802120402221207BE90028EF0A32F
:100467001207BEF01207BE80D97528001207BEF525
:10047700261207BEF5831207BEF5821207BEF527BF
:100487001207BEE5256007752802120402227525AA
:100497000074021207D2E52660121209661207D20B
:1004A700A3D527F6E4C395251207D22290028EE042
:1004B7001207D2A3E01207D280EA7528001207BEFE
:1004C700F5291207BEF5271207BEF5261207BEF556
:1004D700831207BEF5821207BEE52560077528025D
:1004E70012040222E4B52906120A7B02040204B5AB
:1004F7002906120A9F02040204B52906120A9B0262
:10050700040204B52906120AA3020402120AD00241
:1005170004027528001207BEF5291207BEF5271237
:1005270007BEF5261207BEF5831207BEF58212072E
:10053700BEFA1207BEF81207BEF91207BEE525601C
:100547000775280212040222E4B5290C120BF112D6
:1005570000FE50031207B22204B5290302058604E0
:10056700B52908C211120BB5020586C212120BB3C8
:1005770020120B1204021200FE50031207B222755A
:10058700250074021207D27526047583007582E070
:100597001209661207D27582F01209661207D27520
:1005A70082D0752A081209665418F5821209661254
:1005B70007D2A3D52AF67582831209661207D27568
:1005C70082821209661207D290028EE01207D2A326
:1005D700E01207D27582D01209661207D2E4120719
:1005E700D2E41207D2E41207D2E41207D27582814D
:1005F700120966F5821207D27526011209661207DB
:10060700D21582D527F5E4C395251207D22275287E
:10061700001207BEF5261207BEF5831207BEF58244
:100627001207BE04F5291207BE04F5271207BEF507
:100637002A8006E52A1208C4A3D527F7D529F4127C
:1006470007BEE525600375280212040222752800FB
:100657001207BEE525600775280212040222C2119F
:10066700120BB590028EE0F8A3E0F9900284E8F04F
:10067700A3E9F088838982752605120966900286A8
:10068700F0120402227528001207BEF5291207BED0
:10069700F5271207BEE5256006752802020402E465
:1006A700B529065324FB02040204B5290643240492
:1006B70002040204B52908E4F530F5310204028585
:1006C7003082E5276009C3E5309527F5825007E5B5
:1006D70031700302040275250074021207D2758374
:1006E700EEE01207D20583E01207D20583E0120776
:1006F700D20583E01207D20583E01207D20583E013
:100707001207D20583E01207D20583E01207D2054C
:1007170083E01207D20583E01207D20583E01207B0
:10072700D20583E01207D20583E01207D20583E0E2
:100737001207D20583E01207D20583E01207D2051C
:1007470083E01207D20583E01207D20583E0120780
:10075700D20583E01207D2E4C395251207D222758A
:1007670028001207BEF5291207BEE5256006752881
:1007770002020402E4B52907900288F00204020489
:10078700B52907900288F002040290028474FFF0F2
:10079700A37403F0A37467F0A37416F002040212A3
:1007A700010150FB12010A120107221200FE50FB41
:1007B700120104120110221200FE50FB1201041252
:1007C7000110C0E02525F525D0E02212010150FBDC
:1007D70012010A1201072525F52522041E047004BB
:1007E700C1051906150654068C0766900023E49385
:1007F7006402600B740212012FE49364027032A347
:10080700E49364086011E4936408600B74081201B0
:100817002FE4936408701AA3E49364936011E4933C
:100827006477600B749312012FE49364937002C38F
:1008370022D32212011312010DE58124FAC88683FF
:10084700088682A3A3A3A68218A683C8D0D0D08384
:10085700D082D0E01208610203003212010150FB7E
:1008670012010A12011690028BE0448045A8F0227B
:10087700C0E0C082C083C0D075D000900288E0700D
:1008870016D0D0D083D082D0E0022023C0E0C0822F
:10089700C083C0D075D0001200FE40030208B81212
:1008A7000104120110B411030208B8B41B030208B3
:1008B7003A12010AD0D0D083D082D0E032AF26BF1F
:1008C7000102804DBF0202803DBF0302803ABF0490
:1008D70002803EBF05028009BF060280677528FFB8
:1008E70022C312011F50042212012FFFE493B50700
:1008F7000122E528700F752803A882A98390028634
:10090700E9F0A3E8F022F022A882F2220989827F87
:1009170001FEE582B47000400720E715F8EEF622E5
:10092700C082C0839002921209E3EEF0D083D08296
:1009370022BF010280E6C082C083F8EE120E9FD06C
:1009470083D082221392D51209D3C0E012099A0EDE
:10095700AF0613DFFDA2D533DEFDFED0E080B5AFD5
:1009670026BF0102802BBF0202801BBF0302801833
:10097700BF0402801CBF05028009BF0602804075C4
:1009870028FF22E49322E022A882E2228982197FAB
:1009970001E582B47000400620E716F8E622C0821F
:1009A700C0832492F582E43402F583E0D083D082B9
:1009B70022BF010280E5C082C083120E9880ED122B
:1009C70009D312099A0E13DEFDE43322E582FE54A1
:1009D70007CE6E20E7050303032420222582F58234
:1009E700E43583F583220582D58202158315822299
:1009F700A3E0F8A3E0F9A322C8C583C8C9C582C983
:100A070022E0FB1209FFE493CB120A1A1209FFEB4B
:100A1700F0A3221208EFA322F528A882A983900247
:100A270084E527F0A3E526F0A3E9F0A3E8F022EA9E
:100A370075F006A49002FC1209E3E0227A000A127C
:100A47000A36B50002B322BA0AF422AE83AF827A1D
:100A57000A120A36601B1209F7C39FFBE89E700251
:100A67008009C3EF99FBEE98C37006BB02005001E3
:100A770022DADE22120A527404409D7800120A43D9
:100A8700740550941A8A277401F0A3EEF0A3EFF0CF
:100A9700E4020A1F7D0180067D0280027D00E527B2
:100AA700B480107A0A120A366002EDF0DAF722E80B
:100AB700020A1F7807B40A0050F5FA0A120A3678B4
:100AC7000660ECEDF0E4020A1FE5277807B40A0098
:100AD70050DD75F006A4FF9003022582F582E0F54C
:100AE70027A3E0F8A3E0F9A3E0F52688838982E449
:100AF700020A1F90028E0209F8EC900F219354FC12
:100B0700900B0B73020D9C00020B6F00020B690028
:100B1700020B6400020B5E00020B4C00020B480044
:100B2700020D8600020D8A00020EFA0074E0120E12
:100B370098F8A3A3A3E0F9A3E028F52CE439F52B53
:100B470022120B4C32120E96F9120993F52B120949
:100B570093F52CE9020E9D20111E120F0B8D2B8E83
:100B67002C22201113120F0BEC03C45407C52B546E
:100B7700F8452BF52B8D2C22AE2BAF2C7A0B120AB6
:100B870036120A8EE52454046003020B9C7A0B127A
:100B97000E42020DC4120402D212C2118003120CBB
:100BA700C5120BBE7A0A120CAB50F322D211E52400
:100BB70054046003120CC5120AFA882B892C1209F7
:100BC700FFE493FCA3E493FDA3E493FEEC900F21D1
:100BD700935403FA252CF52CE4352BF52B120B0037
:100BE700852C82852B8312034F22E526600BC000DC
:100BF700C00112034FD001D0001209FF7D00EA6047
:100C070005120A527D017A0B120A36ED120A90E597
:100C17002454046003020C37120E40E528600D646B
:100C2700037009120E80120402D21222120DC4227E
:100C3700120402533A00900288E07009120BB512B1
:100C47000CA950F8221200FE504F1207B2F8E53AED
:100C5700053A600B14601414601814601C8037B8D0
:100C67001B0122B804301207A6802E88261207A679
:100C77008027883B1207A6802088821207A6853B1B
:100C870083E526700B90028EE01207A6A3E080038F
:100C97001209661207A6533A00120BB5120CA95097
:100CA700A4227A00120AFA0ABA0C0122120A36B4EE
:100CB70001F5A3E0B500F0A3E0B501EBB322900284
:100CC70089E0F532A3E0F53390028CE0F534A3E038
:100CD700F535A3E0F536A3E0F537A3E0F538A3E053
:100CE700F539E53354182492F582E43402F583E0AC
:100CF700F8A3E0F9A3E0FAA3E0FBA3E0FCA3E0FD7F
:100D0700A3E0FEA3E0FF7583EE853082E532F005B0
:100D170083E539F00583E8F00583E9F00583EAF018
:100D27000583EBF00583ECF00583EDF00583EEF02A
:100D37000583EFF00583E535F00583E534F005839A
:100D4700E537F00583E536F00583E533F00583E500
:100D570038F00583E580F00583E590F00583E5A08D
:100D6700F00583E5B0F00530E530700375310122F9
:100D77007412120A1A7402120A1A7400020A1A8DDD
:100D8700067D037F00EE7E0330E7011F252CF52E3D
:100D9700EF352BF52D90035E12034F1209FF7804F0
:100DA700E6120A1A08DAF9120D7785822F120D77E3
:100DB700120DEBB52F06852E2C852D2B2290028840
:100DC700E0601C1207F2500D120E807464F52812B1
:100DD7000402D21222120402D212120862800512F1
:100DE7000402D21212010A120119900301786FE06E
:100DF700C6F00582D5820215831582D8F2E0F890F5
:100E07000291E0F5F0900290E0C581F090028FE04A
:100E1700C0E090028EE0C0E090028DE0C0E090025A
:100E27008CE0C0E090028BE0F5A890028AE0900287
:100E370089F5D0E0D083D082227A01120AFAAE0176
:100E4700AD00120A36B4012CC083C0821209F7C361
:100E5700EE99FCED98700CBC0200500775280874D9
:100E670001800C7412120A097402120A097403D061
:100E770082D083F00ABA0CCA227A0B120A36B4035C
:100E87000C7401F01209F7120A08120A08DAEC7456
:100E970081D210F880047881C210900289B8E002EC
:100EA7008024A3B8D002801EA3B8A8028018A3B8D4
:100EB70083028012A3B88202800C900290B881024C
:100EC7008004A3B8F007201002F022E02279E52081
:100ED70010027988C0E090035EE91208EFA982E565
:100EE70083C8A3120A1A7422120A1A89828883E411
:100EF700D0007374E0120E98852C82852B8393782B
:100F0700E0020E9F120E96C006F9E52C120913E5B2
:100F17002B120913E9D006020E9D01060F010102EB
:100F270001010101010101010101230A130101026C
:100F3700010101010101010101012306150102025D
:100F470001010101010101010101230A1901020245
:100F5700010101010101010101011E060203020253
:100F6700010101010101010101011E0A020302023F
:100F7700010101010101010101011E060203020233
:100F8700010101010101010101011E0A02290203F8
:100F9700020202020202020202021E0602250103E7
:100FA70002020202020202020202030A0201020212
:100FB7000101010101010101010102060201010113
:100FC70002020202020202020202020A02012323B1
:100FD700232323232323232323230206020101029E
:100FE70001010101010101010101020A02010123BD
:100FF70001011E1E1E1E1E1E1E1E010601010102EC
:1010070001010101010101010101010A01010102BF
:0A10170001010101010101010101C5
:00000001FF
