:101007001206F374FFFFFE121085E4F50AF50B7460
:10101700FFF508F5097F007EF81210857FB87E0B73
:1010270012115B7FE07E071210857FB87E0B1211CD
:101037005B7F1F7E001210857FB87E0B12115B80CD
:01104700D4D4
:1000030000000000000000000000800000FEFF016F
:1000130000FEFF010006C0000006C0000006C0008D
:1000230000FEFF000006C0000006C0000006C0007E
:1000330000FEFF000006C0000006C0000002000032
:1000430030300C1CF07FFC3F30300C1C30300C1C6B
:1000530030300C1C30300C1CF03FFC1F30300C1CBB
:1000630030300C1C30300C1C30300C1CF03FFC1FAB
:10007300F03FFC1F30300C1C3010040C000000005B
:100083000000000000000000C0000808C0F1FF1FCE
:10009300C0F0FF1FC0484C1CC4DCCC1DCCDC8D1D44
:1000A300DC8E8D1DD8060E1FF8C3EF1DF8F1EC1C76
:1000B300D0601D1CC01C770CFE9FE7003483E30C4B
:1000C30030C3FF1F30C3610030E3610030E36106DA
:1000D30030F3FF0F30DB610030FB610438DB610E6E
:1000E30018CFFF0F18C7610098C761000CC36138B0
:1000F30004C2FF3F06C0010002C00100000000006F
:1001030000000000000000000000000000000000EC
:100113000000000808080808080800001818000074
:1001230000486C24120000000000000000000000E2
:100133000000002424247F1212127F1212120000E6
:100143000000081C2A2A0A0C1828282A2A1C080836
:1001530000000022251515152A5854545422000076
:100163000000000C1212120A76252911916E00006C
:100173000006060403000000000000000000000069
:10018300004020101008080808080810102040003C
:1001930000020408081010101010100808040200D0
:1001A3000000000008086B1C1C6B0808000000001E
:1001B30000000000080808087F080808080000007D
:1001C3000000000000000000000000000606040319
:1001D3000000000000000000FE000000000000001E
:1001E3000000000000000000000000000606000000
:1001F3000000804040202010100808040402020080
:1002030000000018244242424242424224180000A5
:10021300000000080E08080808080808083E000047
:100223000000003C4242422020100804427E0000AD
:100233000000003C4242201820404042221C0000A3
:10024300000000203028242422227E202078000071
:100253000000007E0202021A26404042221C0000D7
:10026300000000382402021A2642424224180000E9
:100273000000007E22221010080808080808000069
:100283000000003C4242422418244242423C000007
:10029300000000182442424264584040241C0000DD
:1002A30000000000000018180000000018180000EB
:1002B300000000000000000800000000000808041F
:1002C3000000004020100804020408102040000031
:1002D3000000000000007F0000007F00000000001D
:1002E300000000020408102040201008040200004F
:1002F3000000003C42424640201010001818000045
:100303000000001C225A555555552D42221C000051
:100313000000000808181414243C224242E700009D
:100323000000001F2222221E22424242221F0000FE
:100333000000007C4242010101010142221C000035
:100343000000001F2242424242424242221F00005A
:100353000000003F4212121E12120242423F0000EE
:100363000000003F4212121E121202020207000096
:100373000000003C2222010101712122221C000005
:10038300000000E7424242427E42424242E700000E
:100393000000003E0808080808080808083E000096
:1003A3000000007C10101010101010101010110F0E
:1003B3000000007722120A0E0A121222227700008E
:1003C300000000070202020202020202427F000052
:1003D30000000077363636362A2A2A2A2A6B00008E
:1003E300000000E346464A4A525252626247000006
:1003F3000000001C2241414141414141221C0000B7
:100403000000003F424242423E0202020207000055
:100413000000001C2241414141414D53321C600008
:100423000000003F4242423E1212222242C7000015
:100433000000007C4242020418204042423E000079
:100443000000007F4908080808080808081C000085
:10045300000000E74242424242424242423C000024
:10046300000000E742422224241414180808000064
:100473000000006B494949495555362222220000A4
:10048300000000E7422424181818242442E700003F
:10049300000000772222141408080808081C000032
:1004A3000000007E2120101008040442423F000097
:1004B30000780808080808080808080808087800E9
:1004C3000000020204040808081010202020404005
:1004D300001E1010101010101010101010101E001D
:1004E300003844000000000000000000000000008D
:1004F300000000000000000000000000000000FFFA
:1005030000060800000000000000000000000000DA
:10051300000000000000003C4278444242FC00001E
:10052300000000030202021A26424242261A000079
:1005330000000000000000384402020244380000BA
:1005430000000060404040784442424264D80000CA
:10055300000000000000003C427E0202423C00001A
:10056300000000F08808087E08080808083E00001C
:10057300000000000000007C22221C023C42423C9E
:10058300000000030202023A4642424242E70000F0
:100593000000000C0C00000E08080808083E0000CC
:1005A3000000003030000038202020202020221EB0
:1005B3000000000302020272120A161222770000E0
:1005C3000000000E0808080808080808083E000094
:1005D300000000000000007F9292929292B7000008
:1005E300000000000000003B4642424242E7000098
:1005F300000000000000003C42424242423C000036
:10060300000000000000001B26424242221E020797
:10061300000000000000007844424242447840E079
:1006230000000000000000774C040404041F0000D5
:10063300000000000000007C42023C40423E0000FB
:10064300000000000008083E080808080830000001
:1006530000000000000000634242424262DC0000EE
:1006630000000000000000E74224241408080000F2
:1006730000000000000000EB49495555222200000C
:10068300000000000000007624181818246E0000F3
:1006930000000000000000E74224241418080807A3
:1006A300000000000000007E22100808447E0000C5
:1006B30000C0202020202010202020202020C00047
:1006C3001010101010101010101010101010101027
:1006D30000060808080808100808080808080600A3
:1006E3000C32C20000000000000000000000000007
:10115B00EF1FAA0670011ED39400EA9400400BE423
:0A116B00FDEDC3943E50E90D80F73E
:011175002257
:0211AA00200023
:100FC4008F20A2079295C297D297A2069295C297B4
:100FD400D297A2059295C297D297A2049295C297EE
:100FE400D297A2039295C297D297A2029295C297E2
:100FF400D297A2019295C297D297A2009295C297D6
:03100400D297225E
:04119C001211A5FF88
:0511A000D282020FC421
:10117600AD07AC06D282ECFF120FC4AF05020FC456
:0511A500C282020FC42C
:0A1192001211A5AF05AE040211769C
:101048008E438F447F2A1211A5E543FF1211A0AFEA
:10105800441211A0AF021211A0AF031211A07F2BEE
:101068001211A5AF041211A0AF051211A0E549FF96
:0D1078001211A0AF4A1211A07F2C0211A589
:1006F300D280208053E4FDFCFFFE1211927BFF7A2F
:100703001179AAE4FDFCFFFE120E58E4F528F52743
:10071300F526F525F529FDFCFFFE120DC2E4F527AC
:10072300FBFAFDFCFFFE120EC8E4FDFCFFFE1210F7
:10073300C1E4F527F528FBFAFDFCFFFE120F2BE4BD
:10074300FBFDFCFFFE1208F2D2817F057E00121131
:100753005BC2817F057E0012115BD281D2807F054F
:100763007E0012115BC2807FCB1211A57F3912115B
:10077300A07F2C1211A0E4FF1211A07F341211A04C
:100783007F021211A07FCF12119C7FC11211A07F93
:10079300301211A07FE81211A57F851211A0FF125C
:1007A30011A07F781211A07FEA12119C1211A07F71
:1007B300ED1211A57F641211A07F031211A07F1205
:1007C3001211A07F811211A07FF71211A57F2012B1
:1007D30011A07FC01211A57F231211A07FC1121196
:1007E300A57F101211A07FC51211A57F3E1211A083
:1007F3007F281211A07FC71211A57F861211A07F37
:10080300361211A57F481211A07F3A1211A57F5508
:100813001211A07FB112119C7F181211A07FB61282
:1008230011A57F081211A07F821211A07F27121138
:10083300A07FF212119C7F261211A57F011211A035
:100843007FE01211A57F0F1211A07F311211A07F3B
:100853002B1211A07F0C1211A07F0E1211A07F0882
:100863001211A07F4E1211A07FF11211A07F371237
:1008730011A07F071211A07F101211A07F03121184
:10088300A07F0E1211A07F091211A0FF1211A07FE9
:10089300E112119C7F0E1211A07F141211A07F038D
:1008A3001211A07F111211A07F071211A07F311224
:1008B30011A07FC11211A07F481211A07F0812114D
:1008C300A07F0F1211A07F0C1211A07F311211A073
:1008D3007F361211A07F0F1211A07F111211A57F75
:0F08E30078FE12115B7F291211A57F2C0211A53F
:02108500AC06B7
:101087008C21A907754901754A3F7BEF7A00E4FD7A
:10109700FCFFFE121048E4FBFAAF211211A0AF01CA
:1010A7001211A00BBB00010ABA01EEBB40EB0DBD4C
:0910B70000010CED64F04C70DD49
:0110C000220D
:10113300C3E5229526FFE5219525FEC3E524958287
:06114300FDE5239583FC8D
:10114900AB07AA068C498D4A121048AF09AE0802AE
:0211590011760D
:1010C1008E218F228D828C83E52224FFFFE521343E
:1010D100FFFEE58224FFFDE58334FFFCE5222401C8
:1010E100FBE43521FAE5822401F52AE43583F5296B
:0910F10085082B85092C020F7FF4
:0C0F7F008E238F248C258D268A278B283A
:100F8B00852949852A4A121048AB26AA25D3EB9509
:100F9B002AEA95295022852482852383D3E58295DD
:100FAB0028E5839527500AAF2CAE2B121176A38020
:080FBB00EB0BBB00010A80D51D
:010FC300220B
:100A3A00E4F531F532F533F534C3EB9FF536EA9E2A
:100A4A00F535C3E5309DF538E52F9CF5378E3F8F98
:100A5A00408C418D42D3E5369400E535648094801C
:100A6A004008753B00753C01801DE536453570062A
:100A7A00F53BF53C801174FFF53BF53CC3E4953634
:100A8A00F536E49535F535D3E5389400E5376480D5
:100A9A0094804008753D00753E01801DE538453754
:100AAA007006F53DF53E801174FFF53DF53EC3E451
:100ABA009538F538E49537F537D3E5369538E5377F
:100ACA006480F8E535648098400885353985363A7A
:100ADA00800685373985383A900000E53A2401FFC7
:100AEA00E43539FED3E5829FE5839E5079AD42AC69
:100AFA0041AF40AE3F121149E5362532F532E535B0
:100B0A003531F531E5382534F534E5373533F53304
:100B1A00D3E532953AE5396480F8E5316480984046
:100B2A0018E532953AF532E5319539F531E53C2546
:100B3A0040F540E53B353FF53FD3E534953AE53995
:100B4A006480F8E5336480984018E534953AF534C2
:100B5A00E5339539F533E53E2542F542E53D354124
:060B6A00F541A3020AE5BB
:010B70002262
:100F2B008E218F228C238D248A258B2685232F853A
:100F3B002430120A3A85272F852830AB22AA21ADFF
:100F4B0024AC23AF22AE21120A3A85272F852830F5
:100F5B00AB26AA25AD28AC27AF22AE21120A3A85C3
:100F6B00272F852830AB26AA25AD24AC23AF26AE80
:040F7B0025020A3A07
:0808F2008E218F228C238D243E
:1008FA00900000EB7E008E25F52625E0FFEE33FE04
:10090A00C374039FF528E49EF527D3E5829526E56F
:10091A00256480F8E5836480984003020A3912113D
:10092A0033E5222526FFE521352512113DC3E522AF
:10093A009582FFE5219583FEE5242526FDE52335ED
:10094A0025FC121149121133C3E5229582FFE521D4
:10095A009583FEC3E5249526FDE5239525FC121112
:10096A0049E5222526FFE5213525FEE5242582FDD8
:10097A00E5233583FC121149E5222582FFE521355D
:10098A0083FEC3E5249526FDE5239525FC1211492E
:10099A00E5222582FFE5213583FEE5242526FDE5AE
:1009AA00233525FC121149C3E5229526FFE5219539
:1009BA0025FEE5242582FDE5233583FC121149A392
:1009CA00C3E52764809480501FE582AE837802C312
:1009DA0033CE33CED8F92406FFE43EFEEF2528F5C0
:1009EA0028EE3527F527802DC3E5829526FFE58376
:1009FA009525FEEF7802C333CE33CED8F9240AFF09
:100A0A00E43EFEEF2528F528EE3527F527E52615DD
:100A1A002670021525E5222582FFE5213583FEE5AC
:0F0A2A00242526FDE5233525FC12114902091468
:010A3900229A
:0A0CA7008E2D8F2E8C2F8D308B3197
:100CB100852D35852E36850837850938D3E52E945F
:100CC100E0E52D94004003020DC1E5309430E52F9D
:100CD10094014003020DC174E02531F531E52E2464
:100CE10007FBE4352DFAE530240FF54AE4352FF5FD
:100CF10049AD30AC2FAF2EAE2D121048E5327067E2
:100D0100F9E53175F010A4FFE97C002FFFEC35F017
:100D1100FE74032FF58274013EF583E493F533E409
:100D2100F534E53330E008853708853809800685D4
:100D31000A08850B09AF09AE08121176E533C31312
:100D4100F533052EE52E7002052D0534E534C394E7
:100D51000840CF85352D85362E0530E530700205EA
:100D61002F09B9109C8053E4F9E53175F010A4FF07
:100D7100E97C002FFFEC35F0FE74032FF58274013E
:100D81003EF583E493F533E4F534E53330E0187E42
:100D910000E52E2534FFEE352DFEE97C002530FDE2
:100DA100EC352FFC121149E533C313F5330534E556
:100DB10034C3940840D409B910AF85370885380980
:010DC100220F
:0410FA008F2D8D2E7B
:1010FE00E4753201F531F530F52FAF2E152EEF6078
:10110E001BAB32AA31A930A82FAF2DE4FCFDFE1285
:10111E000B8A8F328E318D308C2F80DEAF32AE3116
:04112E00AD30AC2F05
:01113200229A
:080DC2008E218F228C238D2469
:100DCA00E4F52C852828852727F526F525F52AE533
:100DDA002AC395295077C3E529952A14FD7F0A125B
:100DEA0010FAA804A905AA06AB07AF28AE27AD26B4
:100DFA00AC25120C15E47B0AFAF9F8120C15AF03AC
:100E0A008F2BE52C7026E52914FFE52AC39F501C79
:100E1A00E52B7015E52A75F008A42522FFE5213592
:100E2A00F0FEE4F5327B208019752C01E52A75F075
:100E3A0008A42522FFE52135F0FEE52B2430FBE44A
:0D0E4A00F532AD24AC23120CA7052A8082DE
:010E57002278
:0C0EC8008E218F228C238D248A258B26FE
:100ED400E4F528E528C39527504CC3E52795281445
:100EE400FD7F0A1210FAA804A905AA06AB07AE25CD
:100EF400AF26E4FCFD120C15E47B0AFAF9F8120C97
:100F040015AF038F29E52875F008A42522FFE521F4
:100F140035F0FEE5292430FBE4F532AD24AC231290
:060F24000CA7052880ADBA
:010F2A0022A4
:100E58008E218F228C238D248B258A268927AB25EA
:100E6800AA26A927120B71FB6055D3E52294E0E569
:100E78002194004010E4F521F52274102524F5246E
:100E8800E43523F523D3E5249430E5239401400980
:100E9800E4F521F522F523F524E4F532AD24AC235D
:100EA800AF22AE21120CA774082522F522E43521C1
:100EB800F52174012527F527E43526F526809F229C
:0300000002118664
:0C118600787FE4F6D8FD75814A0210075E
:100B7100BB010689828A83E0225002E722BBFE0282
:090B8100E32289828A83E49322B5
:100B8A00E88FF0A4CC8BF0A42CFCE98EF0A42CFC0A
:100B9A008AF0EDA42CFCEA8EF0A4CDA8F08BF0A488
:100BAA002DCC3825F0FDE98FF0A42CCD35F0FCEBE7
:100BBA008EF0A4FEA9F0EB8FF0A4CFC5F02ECD39AC
:0F0BCA00FEE43CFCEAA42DCE35F0FDE43CFC2219
:100BD90075F008758200EF2FFFEE33FECD33CDCCD3
:100BE90033CCC58233C5829BED9AEC99E582984056
:100BF9000CF582EE9BFEED9AFDEC99FC0FD5F0D633
:100C0900E4CEFBE4CDFAE4CCF9A88222B800C1B95C
:100C19000059BA002DEC8BF084CFCECDFCE5F0CB9A
:100C2900F97818EF2FFFEE33FEED33FDEC33FCEBD3
:100C390033FB10D703994004EB99FB0FD8E5E4F98E
:100C4900FA227818EF2FFFEE33FEED33FDEC33FC7B
:100C5900C933C910D7059BE99A4007EC9BFCE99A6F
:100C6900F90FD8E0E4C9FAE4CCFB2275F010EF2FB4
:100C7900FFEE33FEED33FDCC33CCC833C810D707B4
:100C89009BEC9AE899400AED9BFDEC9AFCE899F8EF
:0E0C99000FD5F0DAE4CDFBE4CCFAE4C8F92282
:00000001FF
