:03000000020040BB
:0300030002015B9C
:03000B0002015C93
:0300130002015D8A
:03001B0002015E81
:0300230002019344
:100030003F065B4F666D7D077F6F777C395E797118
:1000400012005E1200B2120152120077D28E12001C
:1000500084E539B401F812009412005E0149C2919E
:10006000C292C2937537647543287538007539009C
:1000700075400075410022754400754500754600C5
:1000800075420022780179807A297BFF7CFF7D020E
:100090001200C522C374FF9543354240012212006D
:1000A000A222780279807A297BFF7CFF7D051200ED
:1000B000C52275892211BE758DFF758B7A22758CCC
:1000C000CF758ACF2289311200DBD28C1200F3E582
:1000D00032B536F81200F0753200228A358B348C36
:1000E00033E828F536AE34AF35758CFF85338A2278
:1000F000C28C22308DFDDE2BAE34DF27AF350532CA
:1001000020000ED20012013C758CFF85318AC28D11
:1001100022C20012013C74FFC39531758CFFF58A31
:10012000C28D2230000D74FFC39531758CFFF58AA6
:10013000C28D22758CFF85318AC28D2274015D606B
:1001400002B29174025D6002B29274045D6002B208
:100150009322D2AFD2ABC2BBC28A22323232C0E0CB
:10016000C0D0758B7AC28FE544B41419E545B4FA52
:10017000187544007545000546E546B40210C28E68
:10018000753901218E0544218E7544000545D0D076
:06019000D0E0323280FED7
:00000001FF
