:03000000020040BB
:0300030002016394
:03000B000201737C
:0300130002017473
:03001B000201756A
:030023000201AA2D
:100030003F065B4F666D7D077F6F777C395E797118
:1000400012006A120154E537B401FB79461200919F
:10005000120119120154120084D28EE538B401FB4A
:1000600079471200911200BF0140D296D297754293
:1000700014753700753800753900754000754600F5
:1000800075470022754300754400754500754100B1
:1000900022C290C291758000C2B0D2B1758920751C
:1000A0008B82758D827400D2B0314AC2B030B1FDFE
:1000B000D28E308FFDC28EC28F0420B1F3F722C3DF
:1000C000E5468547F095F05008E5479546F54180AF
:1000D00006E5469547F54174FF9542354140277D39
:1000E000647E0FE54175F00A84D2903111314FE5FD
:1000F000F0C290D2913111314FC291DEE67E15DD12
:10010000E2D296D2972212010C80D422C296C297D4
:100110002290003093F4F580227589223125758D67
:10012000FF758B7A22758CCF758ACF227589017500
:100130008C56758AA9C28DD28C308DFDC28DC28C31
:10014000D8EA227832312CD9FA227E02DEFE227FD2
:10015000FADFFE22D2AFD2A8D2ABC2B8D2BBC289DC
:10016000C28A22C0E0C0D07537017805312CD0D0CA
:0E017000D0E0323232C0E0C0D0758B7AC28F40
:10017E00E543B41419E544B4FA1875430075440008
:10018E000545E545B40210C28E75380121A505431B
:0F019E0021A57543000544D0D0D0E0323280FE59
:00000001FF
