:03000000020040BB
:030003000201F9FE
:03000B00020209E5
:0300130002020ADC
:03001B0002020BD3
:0300230002024096
:100030003F065B4F666D7D077F6F777C395E797118
:100040001200731201EAE537B401FB794612009AF7
:100050001201331201EA12008DD28EE538B401FB91
:10006000794712009A1201331201EA12008D120030
:10007000D50140D296D29775420A7537007538007F
:1000800075390075400075460075470022754300BC
:1000900075440075450075410022C2AB9000307573
:1000A00090C0758000C2B0D2B1758920758B827501
:1000B0008D827400D2B011CCC2B030B1FDD28E307E
:1000C0008FFDC28EC28F0420B1F3F7227E02DEFEC6
:1000D0007FFADFFE22C3E5468547F095F05008E53C
:1000E000479546F5418006E5469547F54174FF95ED
:1000F000423541402B7D647E0FE54175F00A84D284
:1001000091312B11D011D0E5F0C291D292312B1147
:10011000D011D0C292DEE27E15DDDED296D29722D9
:1001200012012680D022C296C2972290003093F40A
:10013000F58022758922313F758DFF758B7A227586
:100140008CCF758ACF22758901758C56758AA9C2A4
:100150008DD28C308DFDC28DC28CD8EA227832319E
:1001600046D9FA22893112017AD28C120192E532F3
:10017000B536F812018F753200228A358B348C33F4
:08018000E828F536AE34AF3576
:10018800758CFF85338A22C28C22308DFDDE2BAE22
:1001980034DF27AF35053220000ED2001201DB759F
:1001A8008CFF85318AC28D22C2001201DB74FFC325
:1001B8009531758CFFF58AC28D2230000D74FFC30E
:1001C8009531758CFFF58AC28D22758CFF85318A31
:1001D800C28D2274015D6002B29674025D6002B243
:1001E8009722D2AFD2A8D2ABC2B8D2BBC289C28A38
:1001F80022C0E0C0D075370178053146D0D0D0E0B4
:10020800323232C0E0C0D0758B7AC28FE543B41465
:1002180019E544B4FA187543007544000545E545E9
:10022800B40210C28E753801413B0543413B75430A
:0B023800000544D0D0D0E0323280FE40
:00000001FF
