:03000000020040BB
:030003000201F205
:03000B00020202EC
:03001300020203E3
:03001B00020204DA
:030023000202399D
:100030003F065B4F666D7D077F6F777C395E797118
:100040001200731201E3E537B401FB794612009AFE
:100050001201221201E312008DD28EE538B401FBA9
:10006000794712009A1201221201E312008D120048
:10007000C80140D296D29775420A7537007538008C
:1000800075390075400075460075470022754300BC
:1000900075440075450075410022C290C29175807B
:1000A00000C2B0D2B1758920758B82758D827400C3
:1000B000D2B03153C2B030B1FDD28E308FFDC28E7E
:1000C000C28F0420B1F3F722C3E5468547F095F0CF
:1000D0005008E5479546F5418006E5469547F541C8
:1000E00074FF9542354140277D647E0FE54175F0F0
:1000F0000A84D290311A3158E5F0C290D291311A67
:100100003158C291DEE67E15DDE2D296D2972212F8
:10011000011580D422C296C2972290003093F4F544
:100120008022758922312E758DFF758B7A22758C10
:10013000CF758ACF22758901758C56758AA9C28DB3
:10014000D28C308DFDC28DC28CD8EA227832313506
:10015000D9FA227E02DEFE227FFADFFE22893112E8
:100160000173D28C12018BE532B536F81201887515
:100170003200228A358B348C33E828F536AE34AF22
:0701800035758CFF85338A01
:1001870022C28C22308DFDDE2BAE34DF27AF350542
:100197003220000ED2001201D4758CFF85318AC23D
:1001A7008D22C2001201D474FFC39531758CFFF5FF
:1001B7008AC28D2230000D74FFC39531758CFFF50F
:1001C7008AC28D22758CFF85318AC28D2274015DAA
:1001D7006002B29674025D6002B29722D2AFD2A8D3
:1001E700D2ABC2B8D2BBC289C28A22C0E0C0D07526
:1001F700370178053135D0D0D0E0323232C0E0C097
:10020700D0758B7AC28FE543B41419E544B4FA1854
:100217007543007544000545E545B40210C28E7567
:1002270038014134054341347543000544D0D0D0EB
:05023700E0323280FE00
:00000001FF
