:030000000200EC0F
:030003000203F9FC
:03000B000203FAF3
:030013000203FBEA
:03001B000203FCE1
:0300230002041EB6
:10003000323831320030393132002050524F46537D
:100040002E204C494E444F532120004C656F6E6169
:1000500072646F2050657265697261002020526F72
:10006000647269676F20456E646F20200053454EAF
:1000700048413A20005052455353494F4E45204580
:100080004E5445522000202053454E4841205641B1
:100090004C4944412020002053454E484120494EC0
:1000A00056414C49444120004C49424552414E443E
:1000B0004F20504F52544120005452414E43414E24
:1000C000444F20504F5254412000504F5254412031
:1000D000424C4F515545414441200020202020549E
:1000E000494D454F555420202020200071C371F206
:1000F000780F12029C900030780079357A043166CE
:10010000900035780079457A04316675500351FFC7
:1001100090003A71A7790171EB714790004B71A77C
:1001200090005C71AD790171EB7147716090007561
:1001300071A73182780512029C71D3D28E714771FA
:100140006090006D71A778007907713579317B0176
:100150007F04780A71DD31A43178090BDFF4780A65
:1001600071DD318B80C3316C09DAFB22E893F7082B
:10017000317322E724D0F722780512029C742A7189
:10018000792275907F30930280FB2275907F3091A9
:100190000830937D308E4780F5780512029CD0E0C0
:1001A000D0E08099C294D295D296D29730913530D2
:1001B0009236309337C295D29430913430923530A4
:1001C0009336C296D295309133309234309335C203
:1001D00097D2963091C330922F308E0280C651F163
:1001E000D0E021297401410C7402410C7403410CCC
:1001F0007404410C7405410C7406410C7407410CE5
:100200007408410C7409410C7400410CBB0135F7B2
:1002100022780512029CC28EE535B53111E536B55E
:09022000320CE537B53307E5386F
:10022900B534028041E545B5311DE546B53218E5DD
:1002390047B53313E548B5340E802BBB0202414E56
:10024900BB0300414EF7227147716090009771A777
:10025900786412029C790171EBD5500971479000BD
:10026900CA71A7811F22755003714771609000867A
:1002790071A7783212029C9000A871AD7D0D12020F
:10028900A3790371EB71609000B971AD7D0D120214
:10029900CA2129D2B071DDC2B022D2B1C2B2C2B371
:1002A900C2B4780571DDC2B1D2B2780571DDC2B2CE
:1002B900D2B3780571DDC2B3D2B4780571DDDDDA68
:1002C90022C2B1C2B2C2B3D2B4780171DDD2B3C213
:1002D900B4780171DDD2B2C2B3780171DDD2B1C295
:1002E900B2780171DDDDDA22714771609000DB714E
:1002F900A7790271EB2278387A05711E78387A016C
:10030900711E78067A01711E780C7A01711E7801C6
:100319007A02711E22C2A6C2A5D2A78880C2A77579
:1003290080FFD2A6D2A72087FDC2A722C0E0748091
:10033900B8010274C049F87A01711ED0E022C0E008
:10034900780079007135791074207179D9FA7800BB
:0603590079007135D0E0CF
:10035F0022C0E0780179007135791074207179D954
:10036F00FA780179007135D0E022C2A6D2A5D2A7C2
:10037F00F580C2A77580FFD2A6C2A5D2A72087FDA0
:10038F00C2A722E4936006120379A380F622E060ED
:10039F0006120379A380F722780079008004780190
:1003AF00790012033512039222780F8002780C7AAB
:1003BF0001711E22758921758C56758AA9758DFF5D
:1003CF00758B05227551FF75521E75531422C28D00
:1003DF00D28C308DFDC28DC28CD8F322783271DD74
:1003EF00D9FA2275A88875B80822323232C0E0C017
:1003FF00D0758B05C28FD551117551FFD5520B7525
:10040F00521ED55305755314C28ED0D0D0E0323260
:02041F0080FE5D
:00000001FF
