:030000000200EC0F
:030003000203F8FD
:03000B000203F9F4
:030013000203FAEB
:03001B000203FBE2
:0300230002041DB7
:10003000323831320030393132002050524F46537D
:100040002E204C494E444F532120004C656F6E6169
:1000500072646F2050657265697261002020526F72
:10006000647269676F20456E646F20200053454EAF
:1000700048413A20005052455353494F4E45204580
:100080004E5445522000202053454E4841205641B1
:100090004C4944412020002053454E484120494EC0
:1000A00056414C49444120004C49424552414E443E
:1000B0004F20504F52544120005452414E43414E24
:1000C000444F20504F5254412000504F5254412031
:1000D000424C4F515545414441200020202020549E
:1000E000494D454F555420202020200071C271F108
:1000F000780F12029B900030780079357A043166CF
:10010000900035780079457A04316675500351FEC8
:1001100090003A71A6790171EA714690004B71A680
:1001200090005C71AC790171EA7146715F90007565
:1001300071A63182780512029B71D2D28E714671FE
:100140005F90006D71A678007907713479317B0179
:100150007F04780A71DC31A43178090BDFF4780A66
:1001600071DC318B80C3316C09DAFB22E893F7082C
:10017000317322E724D0F722780512029B742A718A
:10018000782275907F30930280FB2275907F3091AA
:100190000830937D308E4780F5780512029BD0E0C1
:1001A000D0E08099C294D295D296D29730913530D2
:1001B0009236309337C295D29430913430923530A4
:1001C0009336C296D295309133309234309335C203
:1001D00097D2963091C330922F308E0280C651F064
:1001E000D0E021297401410C7402410C7403410CCC
:1001F0007404410C7405410C7406410C7407410CE5
:100200007408410C7409410C7400410CBB0135F7B2
:1002100022780512029BC28EE535B53111E536B55F
:09022000320CE537B53307E5386F
:10022900B534028041E545B5311DE546B53218E5DD
:1002390047B53313E548B5340E802BBB0202414E56
:10024900BB0300414EF7227146715F90009771A67A
:10025900786412029B790171EAD5500971469000C0
:10026900CA71A6811E227550037146715F9000867E
:1002790071A6783212029B9000A871AC7D0D120212
:10028900A2790371EA715F9000B971AC7D0D120218
:10029900C922D2B071DCC2B022D2B1C2B2C2B3C2D9
:1002A900B4780571DCC2B1D2B2780571DCC2B2D2C0
:1002B900B3780571DCC2B3D2B4780571DCDDDA221A
:1002C900C2B1C2B2C2B3D2B4780171DCD2B3C2B482
:1002D900780171DCD2B2C2B3780171DCD2B1C2B299
:1002E900780171DCDDDA227146715F9000DB71A65D
:1002F900790271EA2278387A05711D78387A0171A4
:100309001D78067A01711D780C7A01711D78017AC0
:1003190002711D22C2A6C2A5D2A78880C2A7758074
:10032900FFD2A6D2A72087FDC2A722C0E07480B859
:10033900010274C049F87A01711DD0E022C0E07849
:100349000079007134791074207178D9FA780079BC
:05035900007134D0E04A
:10035E0022C0E0780179007134791074207178D957
:10036E00FA780179007134D0E022C2A6D2A5D2A7C4
:10037E00F580C2A77580FFD2A6C2A5D2A72087FDA1
:10038E00C2A722E4936006120378A380F622E060EF
:10039E0006120378A380F722780079008004780192
:1003AE00790012033412039122780F8002780C7AAE
:1003BE0001711D22758921758C56758AA9758DFF5F
:1003CE00758B05227551FF75521E75531422C28D01
:1003DE00D28C308DFDC28DC28CD8F322783271DC76
:1003EE00D9FA2275A88875B80822323232C0E0C018
:1003FE00D0758B05C28FD551117551FFD5520B7526
:10040E00521ED55305755314C28ED0D0D0E0323261
:02041E0080FE5E
:00000001FF
