:100F000078387A05F11F78387A01F11F78067A016E
:100F1000F11F780C7A01F11F78017A02F11F22C2C9
:100F2000A6C2A5D2A78880C2A77580FFD2A6D2A7E5
:100F30002087FDC2A722C0E07480B8010274C049B6
:100F4000F87A01F11FD0E022C0E078007900F13694
:100F500079107420F17AD9FA78007900F136D0E06E
:100F600022C0E078017900F13679107420F17AD945
:100F7000FA78017900F136D0E022C2A6D2A5D2A734
:100F8000F580C2A77580FFD2A6C2A5D2A72087FD93
:100F9000C2A722E4936006120F7AA380F622E060D3
:100FA00006120F7AA380F722780079008004780176
:100FB0007900120F36120F9322780F8002780C7A84
:100FC00001F11F22C0E0742AF17AD0E022243022FD
:100FD00075F06484120FCD120F7AE5F075F00A8473
:0F0FE000120FCD120F7AE5F0120FCD120F7A22F9
:100D00008F89B105228E8D8D8B8C8C8B8A228FC919
:100D1000B113228CCD8BCC227E02DEFE227F017CA1
:100D2000F87B3FB10EC2CFD2CA30CFFDB113C2CFD4
:100D3000C2CAD5E0F02275E0C8B11DD5E1F8227530
:100D4000E105B136D5E2F822C0E0C0F088E089E1E3
:100D50008AE2BA0013B90009B80002A172B11DA15C
:100D600072EEE8B136F8A158E889F0B13FF8A9F081
:070D7000A155D0F0D0E022F4
:100C000075907F30930280FB22C294D295D296D207
:100C10009730905730912C30922D30932EC295D230
:100C20009430904B30912830922930932AC296D23A
:100C300095309127309228309329C297D2963092DE
:100C40002680C6740181717402817174038171748C
:100C500004817174058171740681717407817174E6
:100C60000881717409817174008171740C817174CF
:030C70000DF7225B
:08050000D2B1120D48C2B12274
:100A50007FA0BFD9EDFAFFFAEDD9BFA07F5E3F2599
:100A60001104000411253F5E7F8096ACC0D2E2EFF6
:100A7000F8FEFFFEF8EFE2D2C0AC96806A54402E3A
:100A80001E110802000208111E2E40546A80808B3D
:100A900096A1ACB6C0C9D2DAE2E9EFF5F8FDFEFFE7
:100AA000FEFDF8F5EFE9E2DAD2C9C0B6ACA1968B4B
:100AB00080756A5F544A40372E261E18110D0805AE
:100AC000020100010205080D11181E262E37404AAA
:100AD000545F6A7580C2A3C2A4ED7F107E2F7DADE6
:100AE000120D00FD120AFDD28E22120131E5F560D1
:100AF000F9E5F9B5F5F4120B1275F900228AF68BB7
:100B0000F78CF8E828F5F5AEF7AFF6758DFF85F8A8
:050B10008B22C28E22C1
:030000000200AE4D
:03000300020124D3
:03000B00020125CA
:03001300020126C1
:03001B00020127B8
:0300230002012FA8
:0300430002013087
:100050004C656F6E6172646F205065726569726184
:10006000002020526F647269676F20456E646F20B4
:10007000200046312F46323A204D75646120566586
:100080006C2E00454E5445523A20496E69742F50EB
:100090006172610056656C2E2050574D20313A2018
:1000A0000056656C2E2050574D20323A2000120029
:1000B000C312011D78007A0A7B0A7C0C7D03120AA8
:1000C000D580FE75FB8075FA1475F48075F3147590
:1000D000FCFD22E535940C6008E535940D60132194
:1000E000031201047A0279007800120D4812011BF4
:1000F00021031201047A0279007800120D481201DE
:100100001C210322900094120FA8E536120FD09004
:1001100000A1120FAEE537120FD022222275A88857
:1001200075B80022323232C0E0120131D0E03232F2
:1001300032C28FDE2AAEF7DF26AFF612018720002B
:100140000CD200120176758DFF85F18B22C2001250
:10015000017674FFC395F1758DFFF58BC28F223048
:10016000000D74FFC395F1758DFFF58BC28F22755D
:100170008DFF85F18B22740155F26002B2A37402E7
:1001800055F26002B2A422E5FB85FAF095F0500E1C
:1001900075F201E5FA95FBF5FA85F4FB800C75F232
:1001A00002E5FB95FAF5FB85F3FAE5FB85FAF09598
:0C01B000F05004E5FB8002E5FAF5F122B6
:00000001FF
