:100B9B004C656F6E6172646F20506572656972612E
:100BAB00002020526F647269676F20456E646F205E
:100BBB00200046312F46323A204D75646120566530
:100BCB006C2E00454E5445523A20496E69742F5095
:100BDB006172610056656C2E2050574D20313A20C2
:0E0BEB000056656C2E2050574D20323A2000E7
:10092400120CDC7BFF7A0B799B7D10120E387BFF57
:100934007A0B79AC7D10120E0D7F887E13120D6632
:100944007BFF7A0B79BD7D10120E387BFF7A0B7911
:10095400CE7D10120E0D7F887E13120D66120E4F7F
:10096400751301E4FB7D01FF120DE5120E46750AB5
:1009740001750B017BFF7A0B79DF7D0C120E387D3C
:1009840003AF0A120DB77F20120C9E7BFF7A0B79FE
:10099400EC7D0C120E0D7D03AF0B120DB77F2012F0
:1009A4000C9E7F5E7E01120D66120A4112080080C1
:0109B400C37F
:10080000E516B40F004003020923900811F82828C8
:100810007302083E02084702092302084B02084DF2
:1008200002092302085802086502092302086C0223
:10083000091002091A0208730208BD020907120C06
:10084000B7E4F508F509227D05801680697D057FEE
:1008500001120C387D0A80607D057F02120C387D04
:100860000A7F0180557D057F010209047D057F0215
:10087000020904E508700AE5097006F5137B01809A
:1008800028E508B4010CE509B40107751301E4FB80
:10089000800DE508B4010DE5097009F5137B017DB4
:1008A00001FF8008751301E4FBFD7F01120DE57D5A
:1008B000057F01120C387D057F02020C38E50870B7
:1008C0000AE5097006F5137B018028E508B4010CE0
:1008D000E509B40107751301E4FB800DE508B401D7
:1008E0000DE5097009F5137B017D01FF8008751383
:1008F00001E4FBFD7F01120DE57D057F01120C680F
:100900007D057F02020C68120CB7120E1C020E2A23
:10091000120CB7750801E4F50922120CB7E4F508CA
:040920007509012232
:100CB700E50AD394015006E50B940140177D057FA3
:100CC70001120C687D057F02120C687FC87E001236
:050CD7000D6680DC2227
:100C3800BF0115C374FF9DFEE50AD39E4004750AE3
:100C4800FF22ED250AF50A22BF0214C374FF9DFF97
:100C5800E50BD39F4004750BFF22ED250BF50B2206
:100C6800BF0111E50AC39D5004750A0122C3E50AB4
:100C78009DF50A22BF0210E50BC39D5004750B01B8
:080C880022C3E50B9DF50B22D0
:100DE500EF24FF92B0ED24FF92B1EB24FF92B2E520
:060DF5001324FF92B3225B
:0E0E1C00A2B0B392B0A2B1B392B163080122AA
:0E0E2A00A2B2B392B2A2B3B392B36309012293
:100CDC007D057F38120D867D017F38120D867D01D2
:100CEC007F06120D867D017F0C120D867D027F0121
:040CFC00120D86222D
:100D86008D10C2A6C2A5D2A78F80C2A77580FFD23A
:090D9600A6D2A72087FDC2A72206
:100DFB007E80BF01027EC0ED4206AF067D01120D63
:010E0B008660
:010E0C0022C3
:100D4600E4FCFB751410FFFD120DFBE514D39400B3
:0F0D560050F97F20120C9E1514E4FFFD120DFBC7
:010D6500226B
:100D00007C01E4FB7515107F01FD120DFBE515D389
:100D1000940050F97F20120C9E1515E47F01FD12FE
:020D20000DFBC9
:010D220022AE
:0E0C9000EF8EF084ADF0EF8EF084FF120E5761
:100C9E00C2A6D2A5D2A78F80C2A77580FFD2A6C248
:090CAE00A5D2A72087FDC2A722F0
:060D23008B108A118912F9
:100D2900E4FEEEC39D5015AB10AA11A9128E82756F
:0C0D39008300120BF9FF120C9E0E80E6E6
:010D4500228B
:0E0E3800AC05E4FDFF120DFBAD04120D2322EC
:0F0E0D00AC05E4FD7F01120DFBAD04120D232295
:010E5C002273
:010E5D002272
:050E5700EF2430FF2232
:020DB7008D109D
:100DB9007E64120C907E0AAF05120C90AF05120EDC
:040DC90057120C9E13
:010DCD002203
:100D9F00010A00010B00020C0000020E0000010806
:040DAF000001090036
:080E4F00E4F580F5A0F5B022E6
:100DCE00438911E4F58CF58AF58DF58BD2A9D2AB5A
:070DDE00D2AFD28ED28C22AD
:090E4600E4F50AF50B120DCE22B1
:03000B00020AC521
:100AC500C0E0C0F0C0D075D000C000C004C005C0F3
:100AD50006C007C28C30A21DE50A6002C2A2C3741B
:100AE500FF950AFFE49400FE7C007D64120C268EBF
:100AF5000C8F0D8011E50A6002D2A2E50A75F0643B
:100B0500A485F00CF50DE50CFFC374FF9FF58CC3B0
:100B150074FF950DF58AC28DD28CD007D006D0050D
:0B0B2500D004D000D0D0D0F0D0E032DF
:03001B00020B30A5
:100B3000C0E0C0F0C0D075D000C000C004C005C087
:100B400006C007C28E30A31DE50B6002C2A3C374AA
:100B5000FF950BFFE49400FE7C007D64120C268E52
:100B60000E8F0F8011E50B6002D2A3E50B75F064C8
:100B7000A485F00EF50FE50EFFC374FF9FF58DC33E
:100B800074FF950FF58BC28FD28ED007D006D0059B
:0B0B9000D004D000D0D0D0F0D0E03274
:100D6600E4FDFCC3ED9FEC9E5015E4FBFA0BBB00C3
:0F0D7600010AEB64644A70F50DBD00010C80E4C6
:010D8500224B
:030DB30001160026
:100A4100C294D295D296D29720900475160C22208A
:100A51009104751601222092047516022220930436
:100A610075160322C295D29420900475160D22208A
:100A71009104751604222092047516052220930410
:100A810075160622C296D29520900475160E222064
:100A910091047516072220920475160822209304EA
:100AA10075160922C297D29620900475160F22203E
:100AB100910475160B22209204E4F51622209380EE
:040AC10075160A227A
:030000000209B53D
:0C09B500787FE4F6D8FD7581160209FC7D
:100BF900BB010CE58229F582E5833AF583E02250B1
:100C090006E92582F8E622BBFE06E92582F8E222FA
:0D0C1900E58229F582E5833AF583E4932214
:100C2600EF8DF0A4A8F0CF8CF0A428CE8DF0A42EE2
:020C3600FE229C
:1009C100020924E493A3F8E493A34003F68001F21F
:1009D10008DFF48029E493A3F85407240CC8C33337
:1009E100C4540F4420C8834004F456800146F6DF06
:1009F100E4800B0102040810204080900D9FE47EEA
:100A0100019360BCA3FF543F30E509541FFEE493FA
:100A1100A360010ECF54C025E060A840B8E493A3C1
:100A2100FAE493A3F8E493A3C8C582C8CAC583CAEC
:100A3100F0A3C8C582C8CAC583CADFE9DEE780BEA4
:010DB600003C
:00000001FF
