:100A6B004C656F6E6172646F20506572656972615F
:100A7B00002020526F647269676F20456E646F208F
:100A8B00200046312F46323A204D75646120566561
:100A9B006C2E00454E5445523A20496E69742F50C6
:100AAB006172610056656C2E2050574D20313A20F3
:0E0ABB000056656C2E2050574D20323A200018
:10088C00120B7F7BFF7A0A796B7D10120CA37BFF16
:10089C007A0A797C7D10120C947F887E13120C09D5
:1008AC007BFF7A0A798D7D10120CA37BFF7A0A7973
:1008BC009E7D10120C947F107E27120C09120CBA1C
:1008CC00120CB1E4F508F5097BFF7A0A79AF7D0CBF
:1008DC00120CA37D03AF08120C427F20120B667B17
:1008EC00FF7A0A79BC7D0C120C947D03AF09120CB3
:1008FC00427F20120B661209117FF47E01120C0943
:05090C00120AC980C3BE
:100AC900E51324F460051460238044E508D394FBFE
:100AD90040057508FF800674052508F508E509D362
:100AE90094FB40047509FF227405801FE508C3942F
:100AF900045005E4F508800674FB2508F508E509A6
:100B0900C394045004E4F5092274FB2509F509226C
:100B7F007D057F38120C297D017F38120C297D01EC
:100B8F007F06120C297D017F0C120C297D027F013B
:040B9F00120C2922E9
:100C29008D0EC2A6C2A5D2A78F80C2A77580FFD29A
:090C3900A6D2A72087FDC2A72264
:100C70007E80BF01027EC0ED4206AF067D01120CF0
:010C8000294A
:010C81002250
:100BE900E4FCFB751110FFFD120C70E511D39400A4
:0F0BF90050F97F20120B661511E4FFFD120C70EE
:010C080022C9
:100BA3007C01E4FB7512107F01FD120C70E512D37A
:100BB300940050F97F20120B661512E47F01FD1299
:020BC3000C70B4
:010BC500220D
:0E0B5800EF8EF084ADF0EF8EF084FF120CC231
:100B6600C2A6D2A5D2A78F80C2A77580FFD2A6C281
:090B7600A5D2A72087FDC2A72229
:060BC6008B0E8A0F89105E
:100BCC00E4FEEEC39D5015AB0EAA0FA9108E8275D4
:0C0BDC008300120B19FF120B660E80E65E
:010BE80022EA
:0E0CA300AC05E4FDFF120C70AD04120BC6226E
:0F0C9400AC05E4FD7F01120C70AD04120BC622FB
:010CC700220A
:010CC8002209
:050CC200EF2430FF22C9
:020C42008D0E15
:100C44007E64120B587E0AAF05120B58AF05120CC6
:040C5400C2120B6657
:010C58002279
:0E0C8200010800010900020A0000020C000037
:080CBA00E4F580F5A0F5B0227D
:100C5900438911E4F58CF58AF58DF58BD2A9D2ABD0
:070C6900D2AFD28ED28C2223
:090CB100E4F508F509120C5922C2
:03000B0002099552
:10099500C0E0C0F0C0D075D000C000C004C005C024
:1009A50006C007C28C30A31DE5086002C2A3C3744C
:1009B500FF9508FFE49400FE7C007D64120B468ED3
:1009C5000A8F0B8011E5086002D2A3E50875F06473
:1009D500A485F00AF50BE50AFFC374FF9FF58CC3E8
:1009E50074FF950BF58AC28DD28CD007D006D00541
:0B09F500D004D000D0D0D0F0D0E03211
:03001B00020A00D6
:100A0000C0E0C0F0C0D075D000C000C004C005C0B8
:100A100006C007C28E30A41DE5096002C2A4C374DB
:100A2000FF9509FFE49400FE7C007D64120B468E66
:100A30000C8F0D8011E5096002D2A4E50975F06400
:100A4000A485F00CF50DE50CFFC374FF9FF58DC375
:100A500074FF950DF58BC28FD28ED007D006D005CE
:0B0A6000D004D000D0D0D0F0D0E032A5
:100C0900E4FDFCC3ED9FEC9E5015E4FBFA0BBB0021
:0F0C1900010AEB64644A70F50DBD00010C80E424
:010C280022A9
:030C90000113004D
:10091100C294D295D296D29720900475130C2220BE
:10092100910475130122209204751302222093046D
:1009310075130322C295D29420900475130D2220C1
:100941009104751304222092047513052220930447
:1009510075130622C296D29520900475130E22209B
:100961009104751307222092047513082220930421
:1009710075130922C297D29620900475130F222075
:10098100910475130B22209204E4F5132220938025
:0409910075130A22AE
:03000000020800F3
:0C080000787FE4F6D8FD758113020847EC
:100B1900BB010CE58229F582E5833AF583E0225091
:100B290006E92582F8E622BBFE06E92582F8E222DB
:0D0B3900E58229F582E5833AF583E49322F5
:100B4600EF8DF0A4A8F0CF8CF0A428CE8DF0A42EC3
:020B5600FE227D
:10080C0002088CE493A3F8E493A34003F68001F26E
:10081C0008DFF48029E493A3F85407240CC8C333ED
:10082C00C4540F4420C8834004F456800146F6DFBC
:10083C00E4800B0102040810204080900C82E47EBE
:10084C00019360BCA3FF543F30E509541FFEE493B1
:10085C00A360010ECF54C025E060A840B8E493A378
:10086C00FAE493A3F8E493A3C8C582C8CAC583CAA3
:10087C00F0A3C8C582C8CAC583CADFE9DEE780BE5B
:010C93000060
:00000001FF
